:100000000C9406010C9423010C9423010C942301FD
:100010000C9423010C9423010C9423010C942301D0
:100020000C9423010C9423010C9423010C942301C0
:100030000C9423010C9423010C9423010C942301B0
:100040000C9423010C9423010C9423010C942301A0
:100050000C9423010C9423010C9423010C94230190
:100060000C9423010C9423016E616E00696E66008E
:100070006364696E6F70737578585B656667454633
:1000800047006E66696E69747900616E0000002039
:10009000410000C84200401C4620BCBE4CCA1B0E9A
:1000A0005AAEC59D74CDCCCC3D0AD7233C17B7D1F1
:1000B0003877CC2B329595E6241FB14F0A20204388
:1000C0006F6E67726174756C6174696F6E732120F5
:1000D00020002A2A2A2A2A2A2A2A2A2A2A2A2A2AB4
:1000E0002A2A2A2A2A2A002020596F75722055535D
:1000F00042204E6572644B6974202000202020202D
:100100002020697320616C697665212020202020E1
:100110000000407A10F35A00A0724E18090010A592
:10012000D4E80000E87648170000E40B5402000011
:10013000CA9A3B000000E1F5050000809698000097
:100140000040420F000000A08601000000102700C0
:10015000000000E803000000006400000000000A46
:1001600000000000000100000000002C76D888DCB0
:10017000674F0823DFC1DFAE59E1B1B796E5E3E48D
:1001800053C63AE651997696E8E6C28426EB898C06
:100190009B62ED407C6FFCEFBC9C9F40F2BAA56F68
:1001A000A5F490055A2AF75C936B6CF9676DC11B37
:1001B000FCE0E40D47FEF520E6B500D0ED902E03FF
:1001C00000943577050080841E080000204E0A0048
:1001D0000000C80C333333330F986E12831141EF94
:1001E0008D2114893BE65516CFFEE6DB18D1844BF2
:1001F000381BF77C1D901DA4BBE424203284725E62
:10020000228100C9F124ECA1E53D270011241FBE85
:10021000CFEFD4E0DEBFCDBF11E0A0E0B1E0EEE46F
:10022000FFE102C005900D92AA30B107D9F711E0A5
:10023000AAE0B1E001C01D92A232B107E1F70E942D
:10024000A20B0C94A50F0C94000020E030E00BC032
:10025000000000000000000000000000000000009E
:1002600000002F5F3F4F2817390791F708950F932C
:100270001F93CF93DF938C01C0E0D0E005C088EEE0
:1002800093E00E9425012196C017D107C1F7DF91A5
:10029000CF911F910F9108955F9A08955F980895E7
:1002A0009BB1937C9BB92BB18F7034E0839FC001CD
:1002B0001124282B2BB95E9A81E090E00E94250141
:1002C0005E9881E090E00C942501CF93C82F829531
:1002D0008F700E9450018C2F8F700E94500180E51A
:1002E00090E0CF910C9425010E944E0181E00E9484
:1002F000650182E390E00E94370182E00E9465017F
:1003000082E390E00C9437010E944E0182E00E944B
:10031000650182E390E00C943701CF93DF931F9245
:10032000CDB7DEB789830E944C0189810F90DF91A0
:10033000CF910C946501CF92DF92EF92FF920F93D1
:100340001F93CF93DF93EC0197FF06C08DE20E94CD
:100350008D01D195C195D10985E0E82EF12C00E100
:1003600017E220E09AE0C92ED12CCE01B8010E94FC
:10037000C20B6115710529F4211103C0013011056B
:1003800051F4862F805D0E948D01CE01B8010E943C
:10039000C20BEC0121E0C801B6010E94C20B8B0127
:1003A00081E0E81AF10809F7DF91CF911F910F91D1
:1003B000FF90EF90DF90CF900895CF92DF92EF9271
:1003C000FF920F931F93CF93DF938C0197FF06C08B
:1003D0008DE20E948D0111950195110925E0E22E13
:1003E000F12CC0E1D7E220E03AE0C32ED12CC801C5
:1003F000BE010E94C20B6115710529F4211103C0D1
:10040000C130D105F1F4862F805D0E948D01C801B5
:10041000BE010E94C20B8C01C436D10521F006C07A
:1004200080E30E948D018EE20E948D0121E0CE01C9
:10043000B6010E94C20BEB0181E0E81AF108B9F69F
:1004400004C0C436D10599F7EBCFDF91CF911F914E
:100450000F91FF90EF90DF90CF900895CF93DF93AF
:10046000EC0105C02196FC0184910E948D01CE0112
:10047000FE0124912111F6CFDF91CF910895CF9302
:10048000DF9300D0CDB7DEB76A8389830E944E0127
:100490008981E82FE1506A81E33028F4F0E0EA5FD7
:1004A000FE4F808101C080E0860F80680F900F9022
:1004B000DF91CF910C94650160E080E00C943F02E5
:1004C00060E081E00C943F0260E082E00C943F0227
:1004D00060E083E00C943F028AB18C6F8AB984E6B5
:1004E00090E00E9437010E944E0183E00E9450017B
:1004F00086E090E00E94370183E00E9450018AEF7D
:1005000090E00E94250183E00E9450018AEF90E074
:100510000E94250182E00E94500188E20E9465014C
:100520008CE00E94650181E00E94650185E090E019
:100530000E9437018CE00E94650186E00E946501FF
:1005400084E10E9465010C9474010E948D0180E099
:1005500090E008951092C50087E08093C40088E180
:100560008093C10086E08093C20062ED72E082EC6D
:1005700092E00C94160D9091C00095FFFCCF8093F3
:10058000C60008950E94BB0280E090E0089580912B
:10059000C000807808958091C00087FFFCCF8091D3
:1005A000C60008950E94CB02282F332727FD3095DF
:1005B000932F0895A3E1B0E0E0EEF2E00C94D60BA7
:1005C0007C015B018A01FC0117821682838181FD17
:1005D00003C06DC3860105C088248394912C8C0EC2
:1005E0009D1EF7019381F50193FD859193FF819104
:1005F0005F01882309F457C3853239F493FD85914F
:1006000093FF81915F01853231F4B70190E00E9440
:10061000A10D6801DFCF412C512C20E02032A8F43D
:100620008B3261F028F4803251F0833271F40BC0C8
:100630008D3239F0803349F4216028C02260246073
:1006400025C0286023C0206121C027FD27C0382F86
:1006500030533A3078F426FF06C0FAE04F9E300D52
:100660001124432E13C08AE0589E300D1124532EBE
:1006700020620CC08E3221F426FD15C3206406C012
:100680008C3611F4206802C0883641F4F50193FDE0
:10069000859193FF81915F018111C0CF982F95546F
:1006A000933018F42061805E06C0982F95569330E1
:1006B00008F0A1C12F7E26FD02C056E0452E4FE373
:1006C000742E7222853619F4F0E47F2A07C086362C
:1006D00019F420E8722A02C041104A9477FE07C03C
:1006E0003BE3341548F0342C339427E00DC087E009
:1006F000841530F0242D07C027E03CE3332E04C0DE
:1007000027E097E0492E312C680194E0C90ED11CF6
:10071000F8016081718182819381032DA4010E947F
:100720000D0C8C0129812C8720FF02C023FF07C0FC
:1007300071FC08C072FE09C080E2682E07C0BDE2ED
:100740006B2E04C0ABE26A2E01C0612C8C858C70CC
:10075000A1F1662011F084E001C083E0851510F05E
:10076000512C0BC0581A73FC08C0B70180E290E00E
:100770000E94A10D5A94C9F7F3CF662029F0B70162
:10078000862D90E00E94A10D3C8533FD03C00CE650
:1007900010E00CC008E610E009C071108052B701EB
:1007A00090E00E94A10D0F5F1F4F02C080E17822F0
:1007B000F80184918111F1CF73C277FE0EC0300E23
:1007C0002C8524FF04C08A81813309F43A941314E0
:1007D0004CF538E0331548F12CC076FC2AC0242DA6
:1007E00030E02017310744F00C3F8FEF180724F05A
:1007F00090E8792A01C04A94442049F0E2E0F0E010
:10080000EC0FFD1FE40DF11D80818033A1F377FE15
:1008100010C0342C3394242D30E00217130744F415
:10082000401A07C03324339404C0F8E03F2E01C0BF
:10083000412C77FE07C0101611063CF498012F5F7B
:100840003F4F05C025E030E002C021E030E06620E7
:1008500011F02F5F3F4F442031F0442D50E04F5FA7
:100860005F4F240F351F452D50E02417350714F432
:10087000521A01C0512C872D897049F406C0B70166
:1008800080E290E00E94A10D5A945110F8CF6620AA
:1008900029F0B701862D90E00E94A10D73FC09C0DC
:1008A00006C0B70180E390E00E94A10D5A94511058
:1008B000F8CF77FE53C0380117FF02C0612C712CAE
:1008C0001E861D86980123193109388B2F87180140
:1008D00026183708280C391C642D70E0222733278E
:1008E000261B370B3A8B298B3FEF6316730629F4CF
:1008F000B7018EE290E00E94A10D061517055CF08D
:100900002F8538892615370534F4ED85FE85E20DEF
:10091000F31D818101C080E331E0631A71082D85E8
:100920003E852F5F3F4F3E872D8729893A89621682
:1009300073062CF0B70190E00E94A10DD5CF601690
:10094000710649F49A81963328F4953321F43C8555
:1009500034FD01C081E3B70190E04AC08A81813350
:1009600019F02C852F7E2C87B70190E00E94A10DF5
:10097000411005C074FE16C085E490E015C0B701B3
:100980008EE290E00E94A10DE2E06E2EF401E60DF1
:10099000F11D6394B701808190E00E94A10D4A94FB
:1009A000A9F7E8CF85E690E0B7010E94A10D17FDF9
:1009B00006C00115110541F43C8534FF05C01195B1
:1009C000019511098DE201C08BE2B70190E00E9410
:1009D000A10D80E303C08F5F0A5011090A30110591
:1009E000D4F7B70190E00E94A10DB701C801C096ED
:1009F0000E94A10D55C1833631F0833781F08335D4
:100A000009F05EC024C0680182E0C80ED11CF80164
:100A10008081898366246394712C840114C06801E9
:100A2000F2E0CF0ED11CF8010081118126FF03C036
:100A3000642D70E002C06FEF7FEFC8012B8B0E9426
:100A40000B0D3C012B896FE7462E422217C068012F
:100A5000F2E0CF0ED11CF8010081118126FF03C006
:100A6000642D70E002C06FEF7FEFC8012B8B0E94F6
:100A7000000D3C012B8950E8452E422A43FC1CC046
:100A800006C0B70180E290E00E94A10D5A94852D26
:100A900090E068167906A8F30FC0F80147FC85912D
:100AA00047FE81918F01B70190E00E94A10D511086
:100AB0005A94F1E06F1A71086114710471F7F0C073
:100AC000843611F0893661F5680127FF09C034E0EA
:100AD000C30ED11CF80160817181828193810AC0AB
:100AE000F2E0CF0ED11CF80160817181882777FD7B
:100AF0008095982F4FE6742E722297FF09C090952B
:100B00008095709561957F4F8F4F9F4FF0E87F2ABA
:100B10002AE030E0A4010E94E80D682E681847C062
:100B2000853731F43FEE732E72222AE030E024C084
:100B300099EF792E72228F36B9F020F4883509F0BA
:100B4000B2C00DC0803721F0883709F0ACC002C0B8
:100B500020E1722A74FE0BC034E0732A08C024FF1F
:100B600009C086E0782A06C028E030E005C020E110
:100B700030E002C020E132E0680177FE09C094E075
:100B8000C90ED11CF801608171818281938108C0F6
:100B9000F2E0CF0ED11CF8016081718180E090E01D
:100BA000A4010E94E80D682E6818FFE77F2276FEF8
:100BB0000BC0072D0E7F641450F474FE0AC072FC43
:100BC00008C0072D0E7E05C0162D072D03C0162D5B
:100BD00001C0142D04FF0CC0FE01E60DF11D808143
:100BE000803311F4097E08C002FF05C01E5F04C0F7
:100BF000802F867809F01F5F03FD12C000FF0DC033
:100C0000462C151550F4450C411A152D06C0B70198
:100C100080E290E00E94A10D1F5F1515C0F304C093
:100C2000151510F4511A01C0512C04FF10C0B70162
:100C300080E390E00E94A10D02FF1EC001FF03C0EF
:100C400088E590E002C088E790E0B7010CC0802FF3
:100C5000867891F001FD02C080E201C08BE207FDC1
:100C60008DE2B70190E00E94A10D06C0B70180E3BC
:100C700090E00E94A10D4A946414C0F36A94F401B8
:100C8000E60DF11DB701808190E00E94A10D611079
:100C9000F5CF06C0B70180E290E00E94A10D5A9402
:100CA0005110F8CF97CCF7012681378102C02FEF82
:100CB0003FEFC9016396E2E10C94F20B20FD09C0FD
:100CC000FC0123FD05C022FF02C0738362835183B0
:100CD00040830895CF92DF92EF92FF920F931F937C
:100CE00044FD10C046FD10C0DB01FC01AA0FBB1F74
:100CF000EE1FFF1F1094D1F76A0F7B1F8E1F9F1FDF
:100D000031E003C033E001C034E0660F771F881F75
:100D1000991F3150D1F76B017C01C20ED11CE11C2F
:100D2000F11C97018601B601C9011F910F91FF9037
:100D3000EF90DF90CF9008950F931F93CF93DF93A1
:100D40008C01C8010E94610DEC0197FD08C00E9452
:100D5000E50C892BB1F7B801CE010E94CD0DCE0173
:100D6000DF91CF911F910F9108956F927F929F9283
:100D7000AF92BF92CF92DF92EF92FF920F931F93A9
:100D8000CF93DF931F92CDB7DEB78C013B015A01A1
:100D900029830E94610DBC01772729816B3271057F
:100DA00021F06D32710571F4206881E0681A7108D4
:100DB00011F480E072C0C80129830E94610D29816D
:100DC00097FDF7CF5DEF952E9222322F307329F5E4
:100DD000803319F5E1E06E1A710809F44AC0C801C0
:100DE00029830E94610D298197FD43C0883711F046
:100DF000883561F4F2E49F2A21E0621A7108C9F192
:100E0000C8010E94610D97FF08C033C026FF03C0D0
:100E1000E2E09E2A02C0F2E19F2AC12CD12C760189
:100E2000282F2053283080F094FE04C0B8010E947F
:100E3000CD0D1CC02A3040F096FEF8CF2F7D322F0A
:100E40003151363098F72750492DC701B6010E941D
:100E50006A066B017C0122E0922A81E0681A71081F
:100E600059F0C8010E94610D97FFDACF91FC04C0D0
:100E7000A0CFC12CD12C760197FE08C0F094E0944D
:100E8000D094C094C11CD11CE11CF11C292DB701C8
:100E9000A601C5010E945E0681E00F90DF91CF910F
:100EA0001F910F91FF90EF90DF90CF90BF90AF9088
:100EB0009F907F906F9008954F925F927F928F9254
:100EC0009F92AF92BF92CF92DF92EF92FF920F93D9
:100ED0001F93CF93DF93CDB7DEB7A0970FB6F894EB
:100EE000DEBF0FBECDBF6C015B017A018901FE013F
:100EF000319680E2DF011D928A95E9F7D6011396BB
:100F00007C9020E030E0812CB0E0912CCF0141E0DA
:100F100050E0F80173FCA59173FEA1918F01A1111E
:100F200003C000E010E07FC0AE3519F42115310593
:100F300051F1692D70E0621773073CF4AD3561F132
:100F4000AD3219F4BB2311F103C0B11101C08A2ED7
:100F50006A2F669566956695FC01E60FF11D6A2F6E
:100F600067702A0102C0440C551C6A95E2F7B20171
:100F70007081762B7083A81559F0A81510F4AF5F17
:100F8000E7CFA150E5CF9924939403C0B1E001C00D
:100F9000B0E02F5F3F4FBDCFBB2319F08E81806241
:100FA0008E83911003C0992493940BC0FE01319657
:100FB000CE018196208120952193E817F907D1F77A
:100FC000F2CFC6010E94610D97FD26C0282F2695FD
:100FD00026952695E1E0F0E0EC0FFD1FE20FF11DF4
:100FE000208130E0AC014770552702C03595279528
:100FF0004A95E2F720FD04C0B6010E94CD0D0CC059
:10100000E114F10419F0D7018D937D01B1E0AB1A21
:10101000B108912CB1F602C0911083CFE114F10414
:1010200011F0F7011082C801A0960FB6F894DEBF48
:101030000FBECDBFDF91CF911F910F91FF90EF9029
:10104000DF90CF90BF90AF909F908F907F905F90F8
:101050004F900895A6E0B0E0E0E3F8E00C94D60BE2
:101060001C017E836D835A8349830E94610D3C017C
:1010700099278B32910519F08D97A1F402C010E0E9
:1010800001C010E88D819E8101979E838D83892BFD
:1010900011F480E038C1C1010E94610D3C0197FF4D
:1010A00002C0F7CF10E0C3010E94ED0C8936910514
:1010B00059F18E36910509F03EC021C0ED81FE81C7
:1010C0003197FE83ED83EF2B71F0C1010E94610D1A
:1010D0006C0197FD08C00E94ED0C0817C9F0B10122
:1010E000C6010E94CD0DF5E8EF16F0E0FF0689F687
:1010F000C12CD12C80E8E82E8FE7F82EF5C00AE845
:10110000E02E00E0F02E04C0B2E8EB2EB0E0FB2EA3
:10111000F7018FEFE81AF80A04910111CFCF9DE88B
:10112000E91690E0F90621F7C12CD12CA0ECEA2EAB
:10113000AFE7FA2ED9C0C12CD12C7601412C512C0D
:10114000262D20532A3018F5012F0260812F887038
:1011500012FF06C0811121C0EFEF4E1A5E0A1DC0BA
:10116000882319F0F1E04F1A510840E2C701B60197
:101170000E946A066B017C0188E9C81689E9D806D5
:10118000E80689E1F80648F0012F066006C02E3F08
:10119000A1F413FD12C0012F0860ED81FE8131978B
:1011A000FE83ED83EF2B41F0C1010E94610D3C01F4
:1011B000102F97FFC5CF01C0102F11FF6ACF862DCA
:1011C000853619F0853409F04DC08D819E810197D7
:1011D0009E838D83892B09F45CCFC1010E94610D30
:1011E0003C0197FD56CF99278B32910519F08D97C9
:1011F00069F41061ED81FE813197FE83ED83EF2B61
:1012000009F447CFC1010E94610D3C01C301C097A1
:101210000A9708F03ECF60E070E0262D2053882723
:1012200077FD8095982F40E20E946A064B015C0191
:101230008D819E8101979E838D83892B59F0C101F9
:101240006B837C830E94610D3C01C0976B817C8124
:101250000A9718F314FF04C06627772768197909DD
:10126000460E571EED81FE81EF2B31F077FC04C056
:10127000B101C3010E94CD0DC701B6010E94B10AA0
:101280006B017C0157FE08C0519441945108F9EB61
:101290006F2EF0E07F2E04C0E1EA6E2EE0E07E2E9D
:1012A0004301F8E18F1A910870E2A72EB12C11C00A
:1012B000F30185919591A591B491282F392F4A2F4B
:1012C0005B2FC701B6010E94EE0A6B017C014A1830
:1012D0005B084A145B0460F784E0681A7108B694EE
:1012E000A79468147904A9F717FF04C0F7FAF094DB
:1012F000F7F8F094E981FA81309721F0C082D18229
:10130000E282F38281E02696E2E10C94F20BA1E006
:10131000B0E0EDE8F9E00C94D80B8C012B014A0108
:10132000FC0117821682712C05C18F2D90E00E945E
:10133000E50C892B21F0C8010E949C06FBC0F5E258
:10134000FF120AC0F201D3FC3591D3FE31912F0177
:10135000353271F425E2F22EC8010E94610D97FD2D
:10136000F4C0F81609F4E6C0B8010E94CD0DEFC034
:101370003A3241F4D3FC3591D3FE31912F016624EA
:10138000639401C0612CE12CF12C0FC0F2E06F2AB4
:10139000B70180E090E040E20E946A067B01F20122
:1013A000D3FC3591D3FE31912F01232F20532A30C6
:1013B00068F361FE04C0E114F10421F4C8C0EE2416
:1013C000EA94FE2C383619F03C3699F40AC0F20142
:1013D000D3FC3591D3FE31912F01383651F4F8E02A
:1013E0006F2A84E0682AF201D3FC3591D3FE319153
:1013F0002F01332309F4ABC0632F70E080E790E046
:1014000039830E94F50C3981892B09F4A0C060FC56
:1014100007C0F401C080D18082E0880E911C02C018
:10142000C12CD12C3E3651F4F8014681578160E041
:1014300070E0262DC6010E945E067CC03336A9F4FA
:1014400061FC03C0EE24E394F12CC8010E94610DFD
:1014500097FD7BC0C114D10419F0F60181936F018F
:10146000F1E0EF1AF10889F763C03B3559F49201B6
:10147000A601B701C8010E945C072C01009709F082
:1014800057C051C0C80139830E949C06398197FD1D
:101490005CC03F36C1F138F4343691F13936A9F1E8
:1014A0003835D1F52AC0333749F018F43037A1F573
:1014B00024C0353729F1383779F51FC0C8010E949B
:1014C000610D5C0197FD13C00E94E50C892B29F08A
:1014D000B801C5010E94CD0D0AC0C114D10419F094
:1014E000F601A1926F01F1E0EF1AF10839F7C1148A
:1014F000D104F1F0F60110821BC0F0E46F2A05C0A0
:1015000080E2682A02C090E1692A262DA601B7016F
:10151000C8010E94B50605C0A601B701C8010E9416
:101520002A08811105C0F8018381807371F40FC00E
:1015300060FE7394F801D380F201D3FCF590D3FEE2
:10154000F1902F01F110F1CE02C0772019F0272D74
:1015500030E002C02FEF3FEFC9012196E0E10C948B
:10156000F40BE89409C097FB3EF490958095709534
:1015700061957F4F8F4F9F4F9923A9F0F92F96E9DF
:10158000BB279395F695879577956795B795F11154
:10159000F8CFFAF4BB0F11F460FF1BC06F5F7F4FF1
:1015A0008F4F9F4F16C0882311F096E911C0772303
:1015B00021F09EE8872F762F05C0662371F096E80C
:1015C000862F70E060E02AF09A95660F771F881FDB
:1015D000DAF7880F9695879597F908950BD078C01C
:1015E00069D028F06ED018F0952309F05AC05FC07A
:1015F0001124A2C07ED0A0F3959FD1F3950F50E0A7
:10160000551F629FF001729FBB27F00DB11D639FB4
:10161000AA27F00DB11DAA1F649F6627B00DA11D5A
:10162000661F829F2227B00DA11D621F739FB00D00
:10163000A11D621F839FA00D611D221F749F332770
:10164000A00D611D231F849F600D211D822F762F09
:101650006A2F11249F5750408AF0E1F088234AF006
:10166000EE0FFF1FBB1F661F771F881F9150504052
:10167000A9F79E3F510570F014C05EC05F3FECF3C8
:10168000983EDCF3869577956795B795F795E7953E
:101690009F5FC1F7FE2B880F911D9695879597F94F
:1016A000089597F99F6780E870E060E008959FEFE4
:1016B00080EC089500240A941616170618060906E9
:1016C000089500240A9412161306140605060895B8
:1016D000092E0394000C11F4882352F0BB0F40F440
:1016E000BF2B11F460FF04C06F5F7F4F8F4F9F4F80
:1016F000089557FD9058440F551F59F05F3F71F002
:101700004795880F97FB991F61F09F3F79F0879568
:101710000895121613061406551FF2CF4695F1DFF1
:1017200008C0161617061806991FF1CF8695710581
:10173000610508940895E894BB2766277727CB01B5
:1017400097F908953C9A449A0E946C020E94840181
:101750000E945C028DEB90E00E942E020E946002CB
:1017600082ED90E00E942E020E94640287EE90E0DB
:101770000E942E020E9468028CEF90E00E942E02CE
:101780004498FFCFAA1BBB1B51E107C0AA1FBB1F78
:10179000A617B70710F0A61BB70B881F991F5A95FD
:1017A000A9F780959095BC01CD0108952F923F92A5
:1017B0004F925F926F927F928F929F92AF92BF9261
:1017C000CF92DF92EF92FF920F931F93CF93DF930D
:1017D000CDB7DEB7CA1BDB0B0FB6F894DEBF0FBE6A
:1017E000CDBF09942A88398848885F846E847D84B7
:1017F0008C849B84AA84B984C884DF80EE80FD80B9
:101800000C811B81AA81B981CE0FD11D0FB6F8942E
:10181000DEBF0FBECDBFED010895283008F027E0F0
:101820003327DA01990F311D87FD9160009661051C
:10183000710539F432602E5F3D9330E32A95E1F76C
:1018400008959F3F30F080387105610509F03C5FD5
:101850003C5F3D93913008F08068911DDF93CF93FA
:101860001F930F93FF92EF92192F987F9695E92F70
:1018700096959695E90FFF27E559FE4F992733274F
:10188000EE24FF24A701E70105900894079428F4AB
:10189000360FE71EF81E491F511D660F771F881F60
:1018A000991F0694A1F70590079428F4E70EF81EF7
:1018B000491F561FC11D770F881F991F661F069469
:1018C000A1F70590079428F4F80E491F561FC71F6B
:1018D000D11D880F991F661F771F0694A1F70590E9
:1018E000079420F4490F561FC71FD81F990F661F72
:1018F000771F881F0694A9F784911095177041F0FF
:10190000D695C79557954795F794E7941A95C1F7DB
:10191000E1E1F1E06894159015913591659195910B
:1019200005907FE27395E118F10A430B560BC90B42
:10193000D009C0F7E10CF11E431F561FC91FD01D6F
:101940007EF4703311F48A95E6CFE894015030F0BC
:10195000080F0AF40027021708F4202F2395022FFE
:101960007A3328F079E37D932A95E9F710C07D93C7
:101970002A9589F606949795679537951795179444
:10198000E118F10A430B560BC90BD00998F02395C7
:101990007E9173957A3308F070E37C932013B8F747
:1019A0007E9170617D9330F0839571E37D9370E358
:1019B0002A95E1F71124EF90FF900F911F91CF919D
:1019C000DF91992787FD909508959111B4C28032D7
:1019D00019F089508550D0F70895911108958154D8
:1019E0008A5108F4805E855A0895FC010590061618
:1019F00021F00020D9F7C00108953197CF01089553
:101A0000FC010590615070400110D8F780959095C9
:101A10008E0F9F1F0895FC016150704001900110CE
:101A2000D8F7809590958E0F9F1F08950F931F9361
:101A3000CF93DF93EC018B01009731F461157105B1
:101A400019F4E0E0F0E037C06EE070E081E090E093
:101A50000E94460EFC010097A1F380E883830115E4
:101A6000110571F01387028781E883838091180143
:101A700090911901892B21F4F0931901E093180139
:101A80002097C9F0D187C08783818260838380914A
:101A90001A0190911B01892B71F4F0931B01E093C3
:101AA0001A0180911C0190911D01892B21F4F09362
:101AB0001D01E0931C01CF01DF91CF911F910F9188
:101AC0000895CF93DF93EC013B8130FF34C036FFA4
:101AD0000AC03F7B3B838E819F8101969F838E83CB
:101AE0002A8130E02AC032FF0FC0E881F98180816D
:101AF000992787FD9095009719F430623B831BC0AE
:101B00003196F983E8830EC0EA85FB85099597FF36
:101B100009C02B81019611F480E101C080E2822B83
:101B20008B8309C02E813F812F5F3F4F3F832E83E0
:101B30009C01332702C02FEF3FEFC901DF91CF9106
:101B400008950F931F93CF93DF938C01EB018B814B
:101B500081FD03C00FEF1FEF1AC082FF0DC02E8161
:101B60003F818C819D812817390764F4E881F981D0
:101B70000193F983E88306C0E885F985802F0995EC
:101B8000892B41F78E819F8101969F838E83C801A7
:101B9000DF91CF911F910F910895FB01238120FFC9
:101BA00013C026FD11C08F3F3FEF930769F082837A
:101BB0002F7D20642383268137812150310937838B
:101BC00026839C01332702C02FEF3FEFC901089500
:101BD000FA01AA27283051F1203181F1E8946F935E
:101BE0006E7F6E5F7F4F8F4F9F4FAF4FB1E03ED004
:101BF000B4E03CD0670F781F891F9A1FA11D680FA2
:101C0000791F8A1F911DA11D6A0F711D811D911DD4
:101C1000A11D20D009F468943F912AE0269F112449
:101C20003019305D3193DEF6CF010895462F4770AD
:101C3000405D4193B3E00FD0C9F7F6CF462F4F7008
:101C4000405D4A3318F0495D31FD4052419302D066
:101C5000A9F7EACFB4E0A69597958795779567950C
:101C6000BA95C9F700976105710508959B01AC010C
:101C70000A2E06945795479537952795BA95C9F733
:101C8000620F731F841F951FA01D08950F931F934C
:101C9000CF93DF93689F8001699F100D789F100D8F
:101CA0001124C8010E94640EC82FD92F209731F04B
:101CB000A80160E070E08C2F0E949E0FCE01DF91A2
:101CC000CF911F910F9108950F931F93CF93DF939F
:101CD0008230910510F482E090E0E0912001F091D3
:101CE000210120E030E0C0E0D0E023C040815181FC
:101CF00048175907A8F04817590761F48281938162
:101D0000209719F09B838A832EC0909321018093A2
:101D1000200129C02115310529F04217530710F081
:101D2000A90102C0BE01DF0102811381EF019A0106
:101D3000F8013097D9F62115310509F1281B390B27
:101D40002430310590F412968D919C911397611572
:101D5000710521F0FB019383828304C090932101DC
:101D600080932001FD01329644C0FD01E20FF31F74
:101D700081939193225031092D933C933AC0209145
:101D80001E0130911F01232B41F42091020130915B
:101D9000030130931F0120931E0120910001309117
:101DA00001012115310541F42DB73EB740910401E1
:101DB00050910501241B350BE0911E01F0911F018C
:101DC000E217F307A0F42E1B3F0B2817390778F012
:101DD000AC014E5F5F4F2417350748F04E0F5F1F71
:101DE00050931F0140931E018193919302C0E0E044
:101DF000F0E0CF01DF91CF911F910F910895EF9205
:101E0000FF920F931F93CF93DF93009709F48EC037
:101E1000DC01129713961C921E921297E0902001FB
:101E2000F0902101E114F10489F42D913C91119776
:101E3000280F391F80911E0190911F01821793076F
:101E400089F5B0931F01A0931E0170C0E70120E047
:101E500030E001C0EA01CA17DB0738F44A815B8130
:101E60009E0141155105B1F722C0AC014250510904
:101E7000FA01D383C28300811181BC01600F711FFD
:101E80006C177D0761F468817981600F711F6E5F47
:101E90007F4F718360836A817B81738362832115A5
:101EA000310529F4B0932101A09320013FC0F9012D
:101EB000B383A283E90149915991C40FD51FAC178F
:101EC000BD0771F4DC019E918E91840F951F0296DF
:101ED0009183808312968D919C9113979383828333
:101EE000A0E0B0E002C0D7017C01F70182819381BC
:101EF0000097C9F7C701029620813181820F931F95
:101F000020911E0130911F012817390779F410978D
:101F100029F4109221011092200104C013961C9202
:101F20001E921297F0921F01E0921E01CDB7DEB70C
:101F3000E6E00C94FE0B992788270895DC0101C088
:0E1F40006D9341505040E0F70895F894FFCFA4
:00000001FF
